:020000040800F2
:1000000088980120610300081D3700089B3500080F
:10001000D136000879190008E14600080000000008
:10002000000000000000000000000000A102000825
:100030007D19000800000000FD020008693E00086C
:100040008503000885030008850300088503000870
:100050008503000885030008850300088503000860
:100060008503000885030008850300088503000850
:100070008503000885030008850300088503000840
:100080008503000885030008850300088503000830
:100090008503000885030008850300088503000820
:1000A0008503000885030008850300088503000810
:1000B000913E0008850300088503000885030008B9
:1000C00085030008850300088503000885030008F0
:1000D0008503000891460008850300088503000891
:1000E00085030008850300088503000885030008D0
:1000F00085030008850300088503000885030008C0
:1001000085030008850300088503000885030008AF
:10011000850300088503000885030008850300089F
:10012000850300088503000885030008850300088F
:10013000850300088503000885030008850300087F
:10014000850300088503000885030008850300086F
:10015000850300088503000885030008850300085F
:10016000850300088503000885030008850300084F
:1001700085030008850300088503000800000000CF
:10018000850300088503000800F002F800F079F804
:100190000AA090E8000C82448344AAF10107DA45E2
:1001A00001D100F06EF8AFF2090EBAE80F0013F0BB
:1001B000010F18BFFB1A43F001031847943E0500D6
:1001C000B43E050010F8013B0A4413F0030408BFD5
:1001D00010F8014B1D1108BF10F8015B641E05D01B
:1001E00010F8016B641E01F8016BF9D1002D15D0D8
:1001F00010F8014B03F00C030C2BA1EB04040ABF15
:1002000010F8013BA4EB8314A4EB032405F10103D4
:1002100014F8016B5B1E01F8016BF9D5914238BFF0
:1002200010F8013BD1D3704700230024002500269D
:10023000103A28BF78C1FBD8520728BF30C148BF49
:100240000B60704766293BF07285642900F070816D
:10025000752900F06D81782900F0A681732900F0DE
:100260005C86002070471FB53BF057FD00F06CFE28
:100270000400002000213AF091FFE0601FBD10B59E
:1002800010BD00F065FF1146FFF7EDFF31F0F8FCFF
:1002900000F083FF03B4FFF7F2FF03BC06F0ECFFAE
:1002A0002C4B19680868B0E8F04F80F30988BFF359
:1002B0006F8F4FF0000080F311887047000000003E
:1002C00008480068006880F308884FF0000080F359
:1002D000148862B661B6BFF34F8FBFF36F8F00DF34
:1002E00000BF00BF08ED00E0DFF80C00016841F43A
:1002F00070010160704700BF88ED00E0EFF30980F6
:10030000BFF36F8F134B1A681EF0100F08BF20ED5C
:10031000108A20E9F04F106009B44FF0500080F3CC
:100320001188BFF34F8FBFF36F8F39F08BFF4FF002
:10033000000080F3118809BC19680868B0E8F04F24
:100340001EF0100F08BFB0EC108A80F30988BFF3CD
:100350006F8F704750050020EFF305807047000055
:100360000C48016841F4700101600B4880470B485C
:100370000047FEE7FEE7FEE7FEE7FEE7FEE7FEE7F3
:10038000FEE7FEE7FEE7000005480649044A064B83
:100390007047000088ED00E07D3E000889010008FC
:1003A000888801208898012088880120704753EAB6
:1003B000020C00F069802DE9F04B4FF00006002B95
:1003C0001FBFB3FA83F503FA05F424FA05F65E407D
:1003D00012BF1643B2FA82F502FA05F4C5F1200500
:1003E0001EBF22FA05FC44EA0C04203556EA044CF0
:1003F0004FEA144418BF641C4FF000084FF0000986
:10040000904271EB030C39D3002919BFB1FA81F77F
:1004100001FA07F6B0FA80F700FA07F6C7F12007ED
:100420001EBF20FA07FC46EA0C062037B6FBF4FC98
:10043000A7EB0507103F07F01F0BCBF120060CFAC6
:100440000BFB2CFA06F644BFB3460026202FA4BFB0
:100450005E464FF0000B5BEA060C08BF4FF0010B45
:1004600019EB0B09ABFB027C48EB0608C01B06FB33
:1004700002CC0BFB03CC71EB0C01C1E70B4602462F
:1004800041464846BDE8F08B13B54FF000004FF0F1
:100490000001AFF30080BDE81C4070470FB4044971
:1004A00010B503AA029800F03DFD10BC5DF814FBE6
:1004B000140000200FB41CB5074B06AA7B44694604
:1004C0000090059800F0FFFC0020694600F00EFD4A
:1004D0001CBC5DF814FB00002D0A000070B50C4632
:1004E0000546012A05D02878800600D5EA69002350
:1004F00002E0012305E05B1C934202D2E05C00288D
:10050000F9D1A869E618C01AA861286A18442862B7
:100510002846AFF3008004E0D5E9012114F8010B6F
:100520009047B442F8D32846AFF3008070BD000076
:100530002DE9F0410646002410687529314616A5BC
:1005400010D0AFF30080002802DA404213A507E084
:1005500031688A0701D512A502E0490704D511A523
:10056000012401E0AFF3008000210A2206F12407F4
:1005700009E0B0FBF2FCB0FBF2F302FB1C003030F0
:1005800078541846491C0028F3D123462A463046A1
:10059000BDE8F04100F02BBA000000002D00000083
:1005A0002B0000002000000070B504460D462146D7
:1005B0001068AFF300802188090502D50F4A7A44FC
:1005C00002E00E4A7A440E32002104F1240305E0D1
:1005D00000F00F060009965D5E54491C0028F7D113
:1005E00020780023000704D5702D02D009B1022322
:1005F00011322046BDE8704000F0F9B9E232050042
:100600002DE9F05F894604464FF0000ADFF824B177
:10061000FB44C0F820A02046E168884700287DD030
:10062000252806D0D4E901219047206A401C206289
:10063000F1E700255F462046E16888472028064606
:1006400007DB312E05D2B81910F8200C08B105438C
:10065000F1E7A80701D525F00405C4F81CA0002780
:10066000C4F818A02A2E09D0304604F007FD38B38C
:1006700004EB8708303EC8F8186019E059F8041BED
:10068000204604EB87029161E1688847012F064606
:1006900018D1E069002820DA25F020051DE0D8F8FF
:1006A000180000EB800006EB40003038C8F8180056
:1006B0002046E1688847064604F0E0FC0028EED1B9
:1006C000012F0AD02E2E08D12046E16888477F1CD2
:1006D0000646022F45F02005C4DBA069002803DA96
:1006E000404245F00105A061E80701D025F0100562
:1006F000A6B1A6F14100192802D8203645F40065BC
:100700004A463146204625604D46FFF79BFD60B1C5
:10071000012807D0ED1D25F0070000E007E000F1FB
:10072000080978E705F1040975E730467AE7206A99
:10073000BDE8F09FB832050040EA0103024630B53B
:100740009B0710D14FF0013400E008C208C91D1BFF
:100750009D4315EAC41FF8D013F0FF0102F8011BF6
:100760000DD01B0AF8E711F8013B002B02F8013B02
:1007700005D011F8013B002B02F8013BF3D130BD4D
:1007800010B5431C02E010F8011B71B18107FAD1CA
:100790004FF0013202C88C1A8C4314EAC211F9D00E
:1007A000C01A0A0603D0C01E10BDC01A10BD0A042C
:1007B00001D0801E10BD0902FCD0401E10BD032ACE
:1007C00040F2308010F0030C00F0158011F8013B6E
:1007D000BCF1020F624498BF11F801CB00F8013B55
:1007E00038BF11F8013BA2F1040298BF00F801CB19
:1007F00038BF00F8013B11F0030300F02580083AF0
:10080000C0F0088051F8043B083A51F804CBA0E846
:100810000810F5E7121D5CBF51F8043B40F8043B9B
:10082000AFF30080D20724BF11F8013B11F801CBD0
:1008300048BF11F8012B24BF00F8013B00F801CBA1
:1008400048BF00F8012B704710B5203AC0F00B806C
:10085000B1E81850203AA0E81850B1E81850A0E8C4
:100860001850BFF4F5AF5FEA027C24BFB1E818501E
:10087000A0E8185044BF18C918C0BDE810405FEA8E
:10088000827C24BF51F8043B40F8043B08BF70470A
:10089000D20728BF31F8023B48BF11F8012B28BF0F
:1008A00020F8023B48BF00F8012B704702F0FF031D
:1008B00043EA032242EA024200F002B84FF000028B
:1008C0000429C0F0128010F0030C00F01B80CCF162
:1008D000040CBCF1020F18BF00F8012BA8BF20F8D0
:1008E000022BA1EB0C0100F00DB85FEAC17C24BF24
:1008F00000F8012B00F8012B48BF00F8012B7047CE
:100900004FF0000200B5134694469646203922BFA8
:10091000A0E80C50A0E80C50B1F12001BFF4F7AFF3
:10092000090728BFA0E80C5048BF0CC05DF804EBD5
:10093000890028BF40F8042B08BF704748BF20F843
:10094000022B11F0804F18BF00F8012B70470000F8
:100950004FF0013C50F8042B51F8043B9A4221D14E
:10096000A2EB0C03934313EACC1317D150F8042BDA
:1009700051F8043B9A4215D1A2EB0C03934313EABE
:10098000CC130BD150F8042B51F8043B9A4209D1F7
:10099000A2EB0C03934313EACC13DBD04FF000001F
:1009A000704700BFD01A01BAB1FA81F101F0180105
:1009B00022FA01F0CB40C1F12001DBB2C0B2C01A73
:1009C0002CFA01F3D11A914311EAC311E6D1704711
:1009D000704770477047704710B500F0B9FA00686B
:1009E00010BD10B5044600F0B3FA046010BD2DE947
:1009F000F0470D4699469246044600F124080168E6
:100A0000880604D5E06921F01001216000E0012092
:100A1000A84201DD471B00E00027A1697A1902EB1B
:100A20000900081AA0612078C00602D42046AFF35E
:100A30000080002608E0D4E901211AF8060090475A
:100A4000206A401C761C20624E45F4DB2078C006EC
:100A50000AD52046AFF3008006E0D4E9012130201A
:100A60009047206A401C2062381EA7F10107F4DC81
:100A700007E0D4E9012118F805009047206A401CDE
:100A80002062281EA5F10105F3DC2046AFF30080AB
:100A90002078000602D50220BDE8F0870120FBE7A0
:100AA00070472DE9FF4F0C461E464FF0FF378BB0C5
:100AB000D2E90001DDF860800A908A46C1F30A5548
:100AC00005B93D46002108464FF00000BAF1000F7D
:100AD00000F4400005DA00EB80004FF4400101EA29
:100AE00050004FEA9059B9F1010F00DDB9460A985C
:100AF00050EA4A000ED044F61050A5F2FF354543A7
:100B00002F14B8F1000F1ED07542291E1EDDC9F149
:100B100000021CE0B8F1010F4FF0000001D03021BD
:100B200003E0F24305E02154401CB042FBDB3046B9
:100B30000022002121540B99C1F80880C1E900204E
:100B40000FB0BDE8F08FBD1B6D1CDEE74A4600DA32
:100B5000694206A800F086FA06AB93E8070003ABEB
:100B600083E8070050460A9900F020FB8DE8070053
:100B7000A0F500501F3800900398002D09DD42F2C7
:100B80001F014A46084403A90390684600F07FFD10
:100B900008E0A0F500504A461F3803A903906846B4
:100BA00000F089FD8DE807000004000C03D04FF031
:100BB000FF30410800E01046B8F1000F03D00022DA
:100BC000009215461EE0751E05D400F0C5F93032BE
:100BD00062556D1EF9D5B3460122084302D00022AA
:100BE0007F1C04E02078302801D100227F1E002ADB
:100BF000099786D01DE0112D07DA00F0ADF93032EB
:100C000062556D1C50EA0102F5D1084302D00098EC
:100C1000C8B10EE00021681E05E0235C625C6354ED
:100C20002254401E491C8142F7DBAB46A81B401EE4
:100C30000990002004F80B000B98099AC0F808806E
:100C4000C0E9002B7CE711264FF0000859E72DE999
:100C5000F04F88460446D21D22F0070191B0D1E939
:100C60000001CDE90A0103F03DFD02460B98C00FDB
:100C700001D02D2007E02068810701D52B2002E05C
:100C8000202101EAC000032A099001D0072A05DBD0
:100C900003464146204600F0A5F90BE12078800686
:100CA00001D5E06900E00620B8F1650F814606D065
:100CB000B8F1660F18D0B8F1670F70D131E000209D
:100CC000B9F1110F009001DB112301E009F10103DB
:100CD0000AAA01A90CA8FFF7E4FEDDE90C700026C2
:100CE00009F10105834647E001204B4600904FF093
:100CF00000470AAA01A90CA8FFF7D3FEDDE90DB051
:100D00000C995D46002610B909F101000D18B9EBE8
:100D1000050003D4C0F1FF3609F10105A5EB090078
:100D20002BE0B9F1010F01DA4FF001090020B9F110
:100D3000110F0090484601DD112300E003460AAA86
:100D400001A90CA8FFF7ADFEDDE90C704D460026A9
:100D50008346207800070AD4AB4500DA5D4601A837
:100D6000012D04DD411911F8011C302907D04F4530
:100D700002DA17F1040F04DA012082460FE06D1E3B
:100D8000EEE7002F02DCED1B3E4403E0781CA84296
:100D900000DD7D1CB81B00F1010A4FF000472078F0
:100DA000000703D4AA4501DB4FF0FF3A0021B7F159
:100DB000004F0DF143088DF8431024D002202B235F
:100DC000002F01DA7F422D230A21021EA0F101002B
:100DD00000DC5FB197FBF1FC97FBF1F201FB1C7C9F
:100DE00017460CF1300C08F801CDEEE7A8F1010030
:100DF00003702188090501D5452100E06521A0F196
:100E0000010800F8011C09980FA9A1EB0807FF1DB4
:100E100000B10120411901EBEA70A1693844081AB8
:100E2000401EA0612078C00602D42046AFF30080A7
:100E3000099828B1D4E901219047206A401C20621A
:100E40002078C00622D52046AFF300801EE0002E99
:100E500004DBB34502DD01A8805D00E03020D4E969
:100E600001219047206A401C2062761CAAF10100F3
:100E70005FEA000A0AD100F067F8C0680168405CC8
:100E8000D4E901219047206A401C2062281EA5F168
:100E90000105DCDC07E0D4E9012118F8010B9047DB
:100EA000206A401C2062381EA7F10107F3DC2046AF
:100EB000AFF30080032011B043E6000001694A1C33
:100EC00002610878704700B58FB0CDE9013100218B
:100ED000059105497944CDE9031011466846FFF7AD
:100EE0008FFB0FB000BD0000E5FFFFFF0A6802F8AE
:100EF000010B0A60704710B5436913B1AFF300806E
:100F000001E0FFF7EBFA012010BD127800F1240197
:100F10000A7000224A700122EDE711684FF0FF329B
:100F2000E9E70000074B70B50D467B44FFF7CBFFA8
:100F30000446284600F004F910B14FF0FF3070BDB0
:100F4000204670BDF33401000048704748880120F6
:100F5000004870472888012030B5B0F10A024FEAF6
:100F6000900E71F100034EEA817EB0EB0E0061EB52
:100F700091014FEA101E4EEA017E10EB0E0041EB8C
:100F800011114FEA102E4EEA016E10EB0E0041EBEC
:100F900011214FEA104E4EEA014E10EB0E0041EBCC
:100FA0001141401841F100014FEAD00040EA417080
:100FB0004FEAD10110EB80054FEA810444EA9074B6
:100FC00044EB01046D1944EB0404521BA3414FF0A0
:100FD000000348BF0A3200D530BD401C41F100017A
:100FE00030BD00002DE9F0411F460446032601688C
:100FF000072A01F4006004DB08B116A505E016A578
:1010000003E008B115A500E015A521F0100020604F
:10101000A069C01EA0610FB1401EA0612046AFF3C1
:1010200000804FB1D4E9012138469047206A401C26
:101030002062C01C206206E0206AFAE7D4E90121A0
:1010400015F8010B9047761EF8D22046AFF30080CA
:10105000BDE8F0814E414E006E616E00494E460083
:10106000696E66002DE9F047814616468AB033481E
:1010700078440DC88DE80D0030487844801C03ACDE
:101080000DC884E80D0041F69B300844372190FBE1
:10109000F1F290FBF1F5A5F1800501FB12041B3C78
:1010A00002D56442012000E00020DFF890A08046D5
:1010B0000027FA44AAF1BE0A0DE0E00709D0324643
:1010C000684607EB47010AEB810100F0F4FA8DE86E
:1010D000070064107F1C002CEFD1184F7F44AC3FF9
:1010E00018E0E80714D007EB04100DF1180A90E897
:1010F0000E008AE80E00C068F04201D198190890ED
:10110000324606A903A800F0D6FA03AB83E807002D
:101110006D10641C002DE4D132466946B8F1000F11
:1011200003A802D000F0B3FA01E000F0C4FAC9E964
:101130000001C9F808200AB0BDE8F087082A0500B8
:10114000007B00F08000704700487047288801202D
:101150007546FFF7F9FFAE4605006946534620F095
:101160000700854618B020B5FFF70EF9BDE820400E
:101170004FF000064FF000074FF000084FF0000B53
:1011800021F00701AC46ACE8C009ACE8C009ACE806
:10119000C009ACE8C0098D46704710B50446AFF3EE
:1011A00000802046BDE81040FFF774B85FEA400CAD
:1011B00008BF91F0000F4FEA8C234FEAC12243EAA7
:1011C00051514FEA1C5018BF00F5F0404FEA300073
:1011D00018BF41F000415FEA6C5C00F02980BCF16F
:1011E000FF3F08BF40F080407047130C06BF120459
:1011F0004FF0100C4FF0000C130E04BF12020CF154
:10120000080C130F04BF12010CF1040C930F04BF60
:1012100092000CF1020CD30F04BF52000CF1010C30
:1012200011464FF00002A0F11F00A0EB0C00704728
:1012300011F0004F08BF704731F000413FF4D5AFC7
:101240000B0C06BF09044FF0100C4FF0000C0B0EF6
:1012500004BF09020CF1080C0B0F04BF09010CF1CB
:10126000040C8B0F04BF89000CF1020CCB0F04BFE0
:1012700049000CF1010CCCF12003A0EB0C0022FA88
:1012800003F302FA0CF241EA030100F10100704796
:1012900020F07F4C80EA030023F07F47ACEB07038C
:1012A00003F57C5300F0004003F1FF032DE9804972
:1012B0004FEA154B09B44FEA144325EA0B4E24EAD2
:1012C00003480FF2042606EB132749083E785FEA2D
:1012D000320203FB0667C7F5000707FB06F64FEA75
:1012E00054374FEAD64606F1020607FB066CCCF1EE
:1012F000005C4FEA1C472CEA074C07FB06F40CFB8A
:1013000006F504EB15464FEA961634BF00204FF061
:1013100000404FEAD13706FB07FC4FEA1C4C0CFBA0
:101320000BF7D21B03FB0CF761EB07010CFB0EF76D
:10133000B0EB074072EB17420CFB08F734BFA2EB8F
:101340000742B2EB074261EB17414FEA0C444FEA08
:10135000910706FB07FC4FEA1C4C0CFB0BF7B0EBAC
:10136000C74072EB573203FB0CF734BFA2EBC74206
:10137000B2EBC74261EB57310CFB0EF7B0EBC70085
:1013800072EB57720CFB08F734BFA2EBC702B2EB4B
:10139000C70261EB5771039F4FEA816141EA9211E5
:1013A00004EBCC044FEAD1374FEA826206FB07FC1C
:1013B00042EA90124FEA80604FEA1C4C0CFB0BF79C
:1013C000D21B03FB0CF761EB07010CFB0EF7B0EB34
:1013D000074072EB17420CFB08F734BFA2EB074241
:1013E000B2EB074261EB17414FEA8C554FEA910788
:1013F00004EB9C2406FB07FC4FEA1C4C0CFB0BF790
:10140000B0EBC74072EB573203FB0CF734BFA2EBD3
:10141000C742B2EBC74261EB57310CFB0EF7B0EBA2
:10142000C70072EB57720CFB08F734BFA2EBC70280
:10143000B2EBC70261EB577115EB4C254FEA8161A6
:1014400041EA92114FEA82624FEAD13742EA9012A2
:1014500006FB07FC44F100044FEA80604FEA1C4C95
:101460000CFB0BF7D21B03FB0CF761EB07010CFB2A
:101470000EF7B0EB074072EB17420CFB08F734BFD6
:10148000A2EB0742B2EB074261EB174115EB1C15CB
:101490004FEA813141EA92414FEA823242EA904278
:1014A0004FEA80304FEA0C7644F1000448EA0343E7
:1014B0004EEA0B484FF0000EB2EB080C71EB03073D
:1014C00024BF624639464EEB0E0E4FF0000B00185B
:1014D000524149414BEB0B0BB2EB080C71EB03078C
:1014E0007BF1000B24BF624639464EEB0E0E4FF0E7
:1014F000000B0018524149414BEB0B0BB2EB080CAF
:1015000071EB03077BF1000B24BF624639464EEBBB
:101510000E0E51EA020718BF46F0010616EB0E76D2
:1015200055F1000254F1000103D5BDE88901BDE881
:101530000088BDE88901BDE80048B619524141EB79
:101540000101A3F10103704780807F7E7D7C7B7A5F
:101550007978777676757473727171706F6E6E6D5F
:101560006C6C6B6A6A696868676666656464636305
:1015700062616160605F5F5E5E5D5D5C5C5B5B5A8B
:101580005A595958585757565655555554545353F8
:1015900052525251515050504F4F4F4E4E4D4D4D53
:1015A0004C4C4C4B4B4B4A4A4A494949484848479E
:1015B00047474746464645454544444444434343DC
:1015C0004342424242414141002B26D4770021D080
:1015D0001CB54FEA370703B44FF010004FF010016D
:1015E0004FF000000FBCBDE810400BF1010BBBF148
:1015F000010F08BF5FEA170722BF12F1010211F1C4
:1016000001014FF0004143F1000300F0004043EAC4
:1016100000007047F9D35708DAE746EA064613F1A7
:10162000400F4FEA16461FDD13F1200FDFBF1643B0
:101630000A46002120335B42C8D0C3F1200746EAA6
:10164000064602FA07F74FEA164646EA0706C3F1CE
:10165000200722FA03F201FA07F721FA03F14FF00B
:10166000000342EA0702B1E746EA020646EA0646F6
:101670004FEA164646EA0106BCBF46EA0646360C65
:101680004FF000034FF000024FF000019EE72DE9FC
:10169000C048934630B491E8380007C831EA400C9E
:1016A00048BF34EA430C03D5FFF7F2FDFFF78CFF88
:1016B000F0BCBDE800882DE9C048934630B491E8FD
:1016C000380007C810F0804F08BF13F0804F03D1D7
:1016D00000F005F8FFF778FFF0BCBDE8008820F0C7
:1016E0007F4780EA030023F07F4C07EB0C03A3F550
:1016F0007C5300F00040A3F1FE0392F0000F00F0D5
:10170000B38095F0000F00F077802DE901494FEA92
:1017100011404FEA144621EA004800FB06FC24EA87
:10172000064708FB06F607FB08F800FB07F718EB6F
:1017300006484CEB164C4FEA124B18EB07484FEAA1
:1017400015464CEB174022EA0B4E0BFB06FC25EA34
:1017500006470EFB06F607FB0EFE0BFB07F71EEB1C
:10176000064E4CEB164C4FF000061EEB074E4CEBB2
:10177000174B18EB0B0840F1000018EB0E0B58EB61
:10178000000840F100008F1A4FF000013CBFC94330
:10179000661B14BFB5EB040C00213CBFC943F61B0C
:1017A0004FEA17444EEA8E0E27EA04454FEA1C47DB
:1017B00004FB07622CEA074C05FB07F70CFB05F658
:1017C00004FB0CFC16EB074642EB174216EB0C46EB
:1017D00042EB1C421BEB060658EB0202414146EA73
:1017E0009E0601D5BDE80189B619524141EB0101C0
:1017F000A3F10103BDE801894FEA14454FEA1147FF
:1018000024EA054621EA074C05FB07F406FB07F727
:101810000CFB06F105FB0CFC11EB074144EB1744F4
:101820004FEA124711EB0C4144EB1C4422EA074CEF
:1018300005FB07F206FB07F70CFB06F605FB0CFCA5
:1018400016EB074642EB174216EB0C4642EB1C45E3
:101850006A1854F1000148BF7047B619524141EB74
:101860000101A3F10103704795F0000F37D04FEA53
:1018700011424FEA144721EA024624EA074C02FBD0
:1018800007F106FB07F70CFB06F402FB0CFC14EB5C
:10189000074441EB17414FEA154714EB0C4441EB69
:1018A0001C4125EA074C02FB07F506FB07F70CFB7A
:1018B00006F602FB0CFC16EB074645EB174516EB4C
:1018C0000C4645EB1C42121951F1000148BF70470C
:1018D000B619524141EB0101A3F1010370474FEAF0
:1018E00014454FEA114724EA054621EA074C05FB57
:1018F00007F106FB07F70CFB06F24FF0000605FBAD
:101900000CFC12EB074241EB174112EB0C4251EB7E
:101910001C4148BF7047921841EB0101A3F101033C
:101920007047000000B587B000BF0020019010484C
:10193000006840F020000E4908600846006800F08A
:101940002000019000BF00BF881502900120039085
:1019500004900320059002A9064800F0FBF800223D
:101960004FF48071034800F0FFF907B000BD00009C
:10197000303802400014024000BFFEE7704700000C
:1019800002A0FEF78BFD00BFFEE700004572726FFC
:10199000722121210D0A000070B504461D46002366
:1019A000B5F5804F13D154F822300C480340D1E9EB
:1019B000000640EA06108E6840EA06208E8940EA5A
:1019C00006408E693043034344F8223003E06FF051
:1019D000704044F82200002070BD00000000F0CFED
:1019E00010B503460022086853F820201248024030
:1019F000D1E901042043CC6820430C6920434C69A1
:101A000020438C692043CC6920430C6A20434C6AF4
:101A100020438C6A2043CC6A2043CC6B20430C6B60
:101A2000204302438868082801D142F04002086838
:101A300043F82020002010BD8000F0FF30B50346A1
:101A40000024501C53F8204004F04044D1E9000524
:101A500040EA05108D6840EA05208D8940EA054579
:101A6000088A401E45EA0055087D801E45EA006050
:101A70008D6928430443501C43F82040002030BDAA
:101A800070B50446A56D00F07BF9064694F8350064
:101A9000022808D08020606500BF002084F8340050
:101AA00000BF012070BD2068006820F0160021688A
:101AB00008602068406920F0800021684861206C3F
:101AC00008B9A06C28B12068006820F008002168DF
:101AD00008602068006820F00100216808600FE0BD
:101AE00000F04EF9801B05280AD92020606500BF50
:101AF000002084F8340000BF032084F83500D1E7CB
:101B00002068006800F001000028E9D194F85C101A
:101B10003F208840A86000BF002084F8340000BF48
:101B2000012084F835000020BCE7014691F835001B
:101B3000022803D08020486501207047052081F8E5
:101B400035000868006820F001000A681060002075
:101B5000F3E70000F8B502460B46002500240020FC
:101B60000021DEE0012606FA01F51E6806EA0504FA
:101B7000AC4275D11E7906F00306012E04D01E7901
:101B800006F00306022E13D190684F000326BE40D4
:101B9000B0434F00DE68BE4030439060506801267D
:101BA0008E40B0431E79C6F300168E40304350601D
:101BB0001E7906F00306032E09D0D0684F000326D5
:101BC000BE40B0434F009E68BE403043D0601E7997
:101BD00006F00306022E13D1CF0802F1200656F8B4
:101BE00027004E07F70E0F26BE40B0434F07FF0EEB
:101BF0001E69BE403043CF0802F1200646F8270098
:101C000010684F000326BE40B0431E7906F003065D
:101C10004F00BE40304310605E6806F08056B6F15B
:101C2000805F7DD100BF00260096404E366846F4A6
:101C300080463E4F3E603E46366806F4804600963B
:101C400000BF00BF3A4E8F0856F827008E07370FA7
:101C50000F26BE40B043374EB24202D1002624E0E8
:101C60005EE0354EB24201D101261EE0334EB24253
:101C700001D1022619E0324EB24201D1032614E00E
:101C8000304EB24201D104260FE02F4EB24201D1B4
:101C900005260AE02D4EB24201D1062605E02C4E63
:101CA000B24201D1072600E008268F073F0FBE4051
:101CB00030431F4E8F0846F82700264E3068A04359
:101CC0005E6806F48036B6F5803F00D12043214E91
:101CD0003060361D3068A0435E6806F40036B6F505
:101CE000003F00D120431B4E361D3060361D30684A
:101CF000A0435E6806F48016B6F5801F00D120432D
:101D0000144E08363060361D3068A0435E6806F415
:101D10000016B6F5001F00D120430E4E0C36306081
:101D2000491C1029FFF41EAFF8BD000044380240E2
:101D30000838014000000240000402400008024050
:101D4000000C024000100240001402400018024043
:101D5000001C0240003C0140024613690B400BB1DD
:101D6000012000E0002070470AB1816101E00B040E
:101D70008361704701480068000C7047002004E050
:101D800001480068704700001C00002003480068FC
:101D90000349097808440149086070471C00002085
:101DA0002400002010B50A48006840F4007008497B
:101DB00008600846006840F480600860032000F076
:101DC0007FF80F2000F006F800F02AF8002010BD80
:101DD000003C024070B504460E4800784FF47A711A
:101DE000B1FBF0F00C490968B1FBF0F5284600F0B2
:101DF0009BFC08B1012070BD102C07D200222146A7
:101E0000501E00F01EF80548046001E00120F2E7D2
:101E10000020F0E724000020000000202000002027
:101E2000704701460846002809DB00F01F03012225
:101E30009A4043099B0003F1E023C3F8002100BF4F
:101E400070472DE9F05F80460D461646002702F0E8
:101E500061FC074639462A46334601F00700C0F1C7
:101E6000070ABAF1040F02D94FF0040A01E0C0F1E9
:101E7000070AD14600F1040ABAF1070F02D24FF067
:101E8000000A01E0A0F1030AD4464FF0010A0AFA61
:101E900009FAAAF1010A0AEA020A0AFA0CFA4FF050
:101EA000010B0BFA0CFBABF1010B0BEA030B4AEA3B
:101EB0000B042146404602F035FCBDE8F09F0000CF
:101EC00000BF00F00702064B19684FF6FF031940E8
:101ED000044B0B4343EA0221014B196000BF7047DA
:101EE0000CED00E00000FA0570B504460D460CB993
:101EF000012070BD5848006800F00700A84209D2D0
:101F000055490D700846006800F00700A84201D04E
:101F10000120EEE7207800F0020002281DD1207891
:101F200000F00400042805D14C48006840F4E0505B
:101F30004A490860207800F00800082805D1474881
:101F4000006840F46040454908604448006820F05B
:101F5000F000A168084341490860207800F00100C2
:101F6000A8B36068012807D13C4808380068C0F36E
:101F70004040B8B90120BCE76068022802D0606820
:101F8000032807D1354808380068C0F3406048B9D5
:101F90000120AEE7314808380068C0F3400008B9B6
:101FA0000120A6E72D48006820F00300616808437F
:101FB0002A490860FFF7E4FE064609E0FFF7E0FE65
:101FC000801B41F28831884202D9032091E707E063
:101FD0002248006800F00C006168B0EB810FEDD181
:101FE0001D48006800F00700A84209D91A490D7081
:101FF0000846006800F00700A84201D0012078E7F9
:10200000207800F00400042807D11448006820F468
:10201000E050E168084311490860207800F00800AA
:10202000082808D10D48006820F46040216940EA82
:10203000C1000A49086000F03FF808490968C1F387
:102040000311074A515CC840064908600648006809
:10205000FFF7C0FE00204CE7003C02400838024079
:1020600032BD030800000020200000200148006865
:10207000704700000000002000B5FFF7F7FF04499B
:102080000968C1F38221034A515CC84000BD0000C9
:102090000838024042BD030800B5FFF7E7FF0449D6
:1020A0000968C1F34231034A515CC84000BD0000D9
:1020B0000838024042BD03082DE9F04700240025FE
:1020C0000026A1462548006800F00C0020B1042835
:1020D00005D008283AD105E0DFF8849039E0DFF830
:1020E000849036E01D48001F006800F03F041B4844
:1020F000001F006800F4800078B11A481749091FD2
:102100000968C1F38811A0FB017001462246002333
:102110003846FEF74CF905460EE011480F49091FF5
:102120000968C1F38811A0FB017001462246002313
:102130003846FEF73CF905460848001F0068C0F322
:102140000140401C4600B5FBF6F902E0DFF81090B4
:1021500000BF00BF4846BDE8F087000008380240D5
:102160000024F40000127A00F8B504460CB90120EE
:10217000F8BD207800F00100002874D0F94800680C
:1021800000F00C0004280DD0F648006800F00C00A8
:10219000082813D1F348001F006800F48000B0F550
:1021A000800F0BD1EF4808380068C0F3404000288A
:1021B00059D06068002856D10120D9E700BF606877
:1021C000B0F5803F08D1E7480838006840F4803017
:1021D000E449083908601EE06068B0F5A02F0DD111
:1021E000E0480838006840F48020DE49083908607B
:1021F0000846006840F4803008600CE0D948083890
:10220000006820F48030D749083908600846006823
:1022100020F48020086000BF606890B1FFF7B0FD37
:10222000054606E0FFF7ACFD401B642801D90320FA
:102230009EE7CC4808380068C0F340400028F1D041
:1022400011E0FFF79DFD054606E0FFF799FD401BF5
:10225000642801D903208BE7C24808380068C0F31E
:1022600040400028F1D1207800F0020002285FD120
:10227000BC48006800F00C0058B1BA48006800F093
:102280000C0008281CD1B748001F006800F480002B
:10229000B0B9B44808380068C0F3400020B1E06825
:1022A000012801D0012063E7AE480838006820F01B
:1022B000F800216940EAC100AA490839086037E0FE
:1022C000E06800B30120A8490860FFF759FD054602
:1022D00006E0FFF755FD401B022801D9032047E720
:1022E000A04808380068C0F340000028F1D09D489D
:1022F0000838006820F0F800216940EAC1009949D7
:102300000839086014E0002097490860FFF738FD9D
:10231000054606E0FFF734FD401B022801D90320E3
:1023200026E7904808380068C0F340000028F1D143
:10233000207800F0080008282CD16069A8B101209D
:102340008A490860FFF71CFD054606E0FFF718FD07
:10235000401B022801D903200AE782486C3000683C
:10236000C0F340000028F1D014E000207F4908604D
:10237000FFF706FD054606E0FFF702FD401B0228B9
:1023800001D90320F4E677486C300068C0F34000C0
:102390000028F1D1207800F00400042870D1002733
:1023A00070483830006800F0805090B900BF0020BD
:1023B00000906C483830006840F0805069493831EE
:1023C00008600846006800F08050009000BF00BF21
:1023D00001276748006800F48070B0B9644800685D
:1023E00040F4807062490860FFF7CAFC054606E0C9
:1023F000FFF7C6FC401B022801D90320B8E65C4861
:10240000006800F480700028F2D000BFA0680128A6
:1024100008D154486830006840F0010051496831E3
:1024200008601DE0A06805280DD14E48683000689E
:1024300040F004004B49683108600846006840F0ED
:10244000010008600CE047486830006820F0010097
:102450004449683108600846006820F004000860BC
:1024600000BFA068A8B1FFF78BFC054609E0FFF7A5
:1024700087FC401B41F28831884202D9032077E66D
:1024800026E0384868300068C0F340000028EED0ED
:1024900013E0FFF775FC054608E0FFF771FC401BF1
:1024A00041F28831884201D9032061E62D48683025
:1024B0000068C0F340000028EFD1012F07D1294860
:1024C0003830006820F0805026493831086000BF5D
:1024D000A069002845D02348006800F00C000828B7
:1024E0005DD0A069022845D100201F490866FFF78A
:1024F00047FC054606E0FFF743FC401B022801D9D4
:10250000032035E6174808380068C0F3406000280B
:10251000F1D1D4E907010843616A40EA811101223F
:10252000A06AC2EB500041EA00412C20005D41EA64
:1025300000600C49091F086001200B490866FFF77D
:102540001FFC054606E0FFF71BFC401B022801D9D3
:1025500003200DE6034808380068C0F340600028F7
:10256000F1D049E00838024000004742800E47425F
:1025700000700040002021490866FFF701FC054675
:1025800006E0FFF7FDFB401B022801D90320EFE521
:102590001B480068C0F340600028F2D12CE0A0691D
:1025A000012800D1E4E51648001D0668A06901284D
:1025B00020D006F48001E06981421BD106F03F0182
:1025C000206A814216D147F6C0703040616AB0EB94
:1025D000811F0FD106F440310122A06AC2EB5000E6
:1025E000B1EB004F06D106F070612C20005DB1EB1D
:1025F000006F01D00120BBE50020B9E50000474293
:102600000038024070B504460E4615460CB901204C
:1026100070BD94F8490028B9002084F8480020468D
:1026200000F01CF804F108012068FFF7D9F93146E1
:10263000A2682068FFF702FA2946236BD4E9010259
:10264000FFF7AAF9A168206850F8210040F00100C6
:10265000A268216841F822000020D9E710B586B0B1
:10266000044600BF002000902248006840F00100AE
:10267000204908600846006800F00100009000BF93
:1026800000BF00BF002000901A480838006840F0E2
:1026900008001849083908600846006800F008007A
:1026A000009000BF00BF00BF0020009008460068F7
:1026B00040F0100008600846006800F0100000902C
:1026C00000BF00BF4CF20370019002200290012075
:1026D0000390022004900C20059001A90648FFF702
:1026E00039FA4FF68070019001A90448FFF732FAD9
:1026F00006B010BD38380240000C02400010024005
:10270000042808D14FF0E021096941F004014FF09D
:10271000E022116107E04FF0E021096921F0040196
:102720004FF0E0221161704770B504462546681EDF
:10273000B0F1807F01D301200FE0681E4FF0E0214F
:1027400048610F214FF0FF3001F0ECFF00204FF007
:10275000E021886107200861002070BD7047704744
:1027600010B50346002200BF93F83C00012801D1B8
:10277000022010BD012083F83C0000BF22F0FF00C2
:10278000CC6840EA040222F440708C6840EA0402FB
:1027900022F480604C6840EA040222F400600C6875
:1027A00040EA040222F480500C6940EA040222F458
:1027B00000504C6940EA040222F48040CC6940EAAF
:1027C00004021868426400BF002083F83C0000BF88
:1027D00000BFCEE730B502460B4600BF92F83C0082
:1027E000012801D1022030BD012082F83C0000BF49
:1027F000022082F83D00106844681068816824F067
:1028000070041868044310684460184D1068A842AA
:102810001BD01068B0F1804F17D0154D1068A8423A
:1028200013D0144D1068A8420FD0134D1068A84261
:102830000BD0124D1068A84207D0114D1068A84265
:1028400003D0104D1068A84205D121F080015868CE
:10285000014310688160012082F83D0000BF002024
:1028600082F83C0000BF00BFBDE70000000001404F
:102870000004004000080040000C0040000401403B
:10288000004001400018004070B504460D4615B9DF
:1028900094F842000BE0042D02D14320005D06E0D5
:1028A000082D02D14420005D01E04520005D012893
:1028B00001D0012070BD1DB9022084F842000EE055
:1028C000042D03D102214320015508E0082D03D136
:1028D00002214420015502E0022145200155042235
:1028E0002946206801F059FB2068406C40F4004004
:1028F000216848641A49206888421BD02068B0F1DA
:10290000804F17D017492068884213D01649206895
:1029100088420FD01549206888420BD0144920689E
:10292000884207D013492068884203D012492068A2
:1029300088420CD12068806800F00706062E0CD073
:102940002068006840F001002168086005E0206808
:10295000006840F00100216808600020AAE700003C
:10296000000001400004004000080040000C00404E
:1029700000040140004001400018004010B504462A
:102980000CB9012010BD94F83D0028B9002084F84E
:102990003C00204600F025F8022084F83D00211D6F
:1029A000206801F07DFA012084F8460000BF84F819
:1029B0003E0001213F200155402001554120015595
:1029C00000BF00BF012084F842004320015544208D
:1029D00001554520015500BF012084F83D0000202D
:1029E000D0E77047014691F83D00012801D0012051
:1029F0007047022081F83D000868C06840F001007F
:102A00000B68D8601A4B086898421BD00868B0F170
:102A1000804F17D0174B0868984213D0164B0868A0
:102A200098420FD0154B086898420BD0144B086899
:102A3000984207D0134B0868984203D0124B08689D
:102A400098420CD10868806800F00702062A0CD072
:102A50000868006840F001000B68186005E008682D
:102A6000006840F001000B6818600020C0E700001B
:102A7000000001400004004000080040000C00403D
:102A80000004014000400140001800402DE9F041E1
:102A900004460D4600BF94F83C00012802D10220F4
:102AA000BDE8F081012084F83C0000BF022084F8DA
:102AB0003D002068866826F0770626F47F46206869
:102AC00086602868502833D00CDC202850D004DCE5
:102AD00000284BD0102851D149E0302849D0402857
:102AE0004CD139E060282DD0702807D0B0F5805F38
:102AF00003D0B0F5005F41D10DE040E0D5E902130D
:102B00006A68206801F05AFA2068866846F07706FD
:102B10002068866033E0D5E902136A68206801F016
:102B20004DFA2068806840F480402168886026E083
:102B3000EA686968206801F086FB5021206801F08E
:102B400048FA1CE0EA686968206801F08FFB6021A0
:102B5000206801F03EFA12E0EA686968206801F036
:102B600072FB4021206801F034FA08E000BF00BF8A
:102B700000BF2968206801F02CFA00E000BF00BF08
:102B8000012084F83D0000BF002084F83C0000BF15
:102B900000BF85E7704710B5044620680069C0F3A0
:102BA0004000D8B12068C068C0F34000B0B16FF0F9
:102BB000020021680861012020772068806900F008
:102BC000030018B12046FFF7E5FF05E0204600F0BE
:102BD000E1F8204600F0C5F9002020772068006960
:102BE000C0F38000D8B12068C068C0F38000B0B1E5
:102BF0006FF0040021680861022020772068806956
:102C000000F4407018B12046FFF7C4FF05E02046ED
:102C100000F0C0F8204600F0A4F9002020772068DA
:102C20000069C0F3C000D8B12068C068C0F3C0001C
:102C3000B0B16FF008002168086104202077206897
:102C4000C06900F0030018B12046FFF7A3FF05E0BC
:102C5000204600F09FF8204600F083F900202077FE
:102C600020680069C0F30010D8B12068C068C0F3C4
:102C70000010B0B16FF010002168086108202077C3
:102C80002068C06900F4407018B12046FFF782FF49
:102C900005E0204600F07EF8204600F062F90020B2
:102CA00020772068006900F0010058B12068C068F2
:102CB00000F0010030B16FF001002168086120468A
:102CC00000F0D6F920680069C0F3C01058B1206840
:102CD000C068C0F3C01030B16FF080002168086197
:102CE0002046FFF73BFD20680069C0F3801058B113
:102CF0002068C068C0F3801030B16FF040002168D8
:102D00000861204600F00CFA20680069C0F340100A
:102D100058B12068C068C0F3401030B16FF0200097
:102D2000216808612046FFF71AFD10BD70B5044602
:102D30000E46154600BF94F83C00012801D1022040
:102D400070BD012084F83C0000BF35B1042D09D0CE
:102D5000082D0CD00C2D14D10EE03146206801F066
:102D600041F90FE03146206801F074F90AE031467C
:102D7000206801F0ADF905E03146206801F0E4F982
:102D800000E000BF00BF00BF002084F83C0000BF8F
:102D900000BFD5E7704710B504460CB9012010BD3F
:102DA00094F83D0028B9002084F83C00204600F04B
:102DB00025F8022084F83D00211D206801F070F8FC
:102DC000012084F8460000BF84F83E0001213F2026
:102DD0000155402001554120015500BF00BF012091
:102DE00084F84200432001554420015545200155F7
:102DF00000BF012084F83D000020D0E7704770B587
:102E000004460D46164600BF94F83C00012801D147
:102E1000022070BD012084F83C0000BF36B1042EB2
:102E20001BD0082E31D00C2E5ED145E029462068FB
:102E300001F0D8F82068806940F0080021688861B6
:102E40002068806920F0040021688861206880691A
:102E5000296908432168886147E02946206801F014
:102E6000F9F82068806940F4006021688861206872
:102E7000806920F480602168886120688069296900
:102E800040EA0120216888612FE02946206801F08E
:102E90001FF92068C06940F008002168C8612068F7
:102EA000C06920F004002168C8612068C0692969F0
:102EB00008432168C86118E02946206801F044F9F8
:102EC0002068C06940F400602168C8612068C0695A
:102ED00020F480602168C8612068C069296940EADF
:102EE00001202168C86100E000BF00BF00BF0020D2
:102EF00084F83C0000BF00BF8BE710B504460CB956
:102F0000012010BD94F83D0028B9002084F83C0051
:102F1000204600F025F8022084F83D00211D20689D
:102F200000F0BEFF012084F8460000BF84F83E0098
:102F300001213F200155402001554120015500BF8E
:102F400000BF012084F84200432001554420015570
:102F50004520015500BF012084F83D000020D0E746
:102F60007047704770B504460D4615B994F83E0099
:102F70000BE0042D02D13F20005D06E0082D02D1B8
:102F80004020005D01E04120005D012801D00120CA
:102F900070BD1DB9022084F83E000EE0042D03D15F
:102FA00002213F20015508E0082D03D102214020D5
:102FB000015502E0022141200155012229462068E5
:102FC00000F0DAFF23492068884203D022492068B4
:102FD000884201D1012000E0002028B12068406C27
:102FE00040F40040216848641A49206888421BD098
:102FF0002068B0F1804F17D018492068884213D05C
:103000001749206888420FD01649206888420BD0A3
:1030100011492068884207D013492068884203D0AC
:103020001249206888420CD12068806800F00706A9
:10303000062E0CD02068006840F00100216808606E
:1030400005E02068006840F0010021680860002069
:103050009EE7000000000140000401400004004021
:1030600000080040000C00400040014000180040F3
:103070000C4A01681268914213D10B490B4A12881D
:1030800031F812100A4A1268516308490988491C2C
:10309000064A118011460988B1F5FA7F01D1002155
:1030A00011807047680A002080000020680400201A
:1030B000200A002070B504460D4600BF94F83C007D
:1030C000012801D1022070BD012084F83C0000BF1E
:1030D000022084F83D002946204601F05FF848B1FF
:1030E000012084F83D0000BF002084F83C0000BFB0
:1030F0000120E8E72068C06820F040002168C8602F
:103100002068C06820F480402168C860012084F8ED
:103110003D0000BF002084F83C0000BF00BFD2E7A4
:1031200070477047704701460022002391F83D2008
:1031300091F83E3042EA0300704700002DE9F84F55
:103140000446206805682068C668206847694FF013
:103150000009CA4605F00F09B9F1000F0AD105F0C0
:10316000200038B106F0200020B1204601F0C7F859
:10317000BDE8F88FB9F1000F72D007F0010018B95F
:1031800006F4907000286BD005F0010030B106F411
:10319000807018B1206C40F00100206405F004003C
:1031A00030B107F0010018B1206C40F0020020643B
:1031B00005F0020030B107F0010018B1206C40F0BA
:1031C0000400206405F0080048B106F0200010B9A2
:1031D00007F0010018B1206C40F008002064206C5A
:1031E00070B305F0200028B106F0200010B1204691
:1031F00001F085F820684069C0F3801A206C00F067
:10320000080010B9BAF1000F23D0204601F04CF8A5
:103210002068406900F04000402816D120684069CD
:1032200020F0400021684861A06B50B15648A16B66
:103230000865A06BFEF779FC10B1A06B016D8847A3
:103240000CE02046FFF76EFF08E02046FFF76AFF1C
:1032500004E02046FFF766FF0020206488E7FFE7D0
:10326000206B012879D105F01000002875D006F0F8
:103270001000002871D000BF002000902068006876
:10328000009020684068009000BF00BF206840693F
:1032900000F04000402839D1A06B006840681FFA58
:1032A00080F8B8F1000F30D0A08D40452DDDA4F896
:1032B0002E80A06BC069B0F5807F1FD02068C068E9
:1032C00020F480702168C8602068406920F0010007
:1032D000216848612068406920F040002168486109
:1032E000202084F83E00002020632068C06820F081
:1032F00010002168C860A06BFEF7C2FBA08DE28DB4
:10330000801A81B22046FFF70CFF31E7A08DE18DD6
:10331000401A1FFA80F8E08DE8B1B8F1000F1AD01A
:103320002068C06820F490702168C86020684069F7
:1033300020F0010021684861202084F83E00002030
:1033400020632068C06820F010002168C8604146F2
:103350002046FFF7E6FE0BE7FFE705F0800030B1FF
:1033600006F0800018B1204601F061F900E705F091
:10337000400030B106F0400018B1204600F0AFFF29
:10338000F6E600BFF4E600009542000810B50446DA
:103390000CB9012010BDA06900B100E000BF94F895
:1033A0003D0028B9002084F83C00204600F028F8B1
:1033B000242084F83D002068C06820F40050216873
:1033C000C860204600F0FAFF2068006920F49040B1
:1033D000216808612068406920F02A00216848615E
:1033E0002068C06840F400502168C8600020206454
:1033F000202084F83D0084F83E000020CAE7000049
:1034000010B586B004462E492068884255D100BFC9
:1034100000BF002000902B48006840F010002949B0
:1034200008600846006800F01000009000BF00BF70
:1034300000BF00BF00BF0020009022481438006881
:1034400040F001001F49143908600846006800F088
:103450000100009000BF00BF00BF00BF00BF002000
:1034600000900846006840F00100086008460068C7
:1034700000F00100009000BF00BF00BF48150190A0
:103480000220029001200390022004900720059062
:1034900001A90D48FEF75EFB4FF480600190072004
:1034A000059001A90848FEF755FB2520FEF7B9FC59
:1034B000032211462520FEF7C4FC06B010BD000013
:1034C00000100140443802400000024070B504463C
:1034D0000D46164694F83E00202816D105B10EB9C7
:1034E000012070BD00BF94F83C00012801D10220EA
:1034F000F7E7012084F83C0000BF0020206332463B
:103500002946204601F070F8EBE70220E9E70000C9
:103510001D4A0168914236D11C49098801F40041D5
:1035200089BB1A49098801F4804171B118490978A9
:103530000A2903D00021154A118024E01349098883
:1035400041F40041114A11801DE0114909780D290B
:1035500006D10E49098841F480410C4A118012E0DD
:103560000B490978094A1288C2F30D02094B995494
:1035700006490988491C054A118011460988C7294E
:1035800001DD00211180704700100140180000206B
:103590001A000020DC070020704700BFFEE7000093
:1035A00000B58FB000200B900C900D900E900990FC
:1035B0000A901C2102A8FDF7A3F900BF002001908A
:1035C0002748006840F00400254908600846006864
:1035D00000F00400019000BF00BF224822490860AB
:1035E0005320486000212048816040F2E731C160EB
:1035F000002101618161FFF7C1F908B1FEF7C0F94F
:103600004FF480500B900BA91748FFF73FFA08B111
:10361000FEF7B6F91448FFF770FC08B1FEF7B0F9F1
:10362000002009900A9009A90F48FFF7D3F808B1C4
:10363000FEF7A6F9602002904FF4FA700390002084
:1036400004900690042202A90748FFF7D8FB08B1AE
:10365000FEF796F9044800F009F80FB000BD00002D
:1036600040380240000800404809002010B586B0EC
:103670000446142101A8FDF743F912492068884245
:103680001DD100BF002000900F48006840F00800E6
:103690000D4908600846006800F00800009000BF6F
:1036A00000BF4FF4005001900220029000200390D0
:1036B00004900220059001A90448FEF74BFA06B0D9
:1036C00010BD00000008004030380240000C0240ED
:1036D00000BFFEE700B587B000BF002001900D4895
:1036E000006840F040000B4908600846006800F0A0
:1036F0004000019000BF00BF08200290012003900D
:1037000004900220059002A90348FEF723FA07B0AF
:1037100000BD000030380240001802407047000031
:1037200010B586B00446142101A8FDF7E9F8314927
:10373000206888421ED100BF002000902E480068FB
:1037400040F001002C4908600846006800F00100C4
:10375000009000BF00BF4FF4C070019002200290A3
:103760000020039004900120059001A92348FEF752
:10377000F1F93DE022492068884239D100BF00209C
:1037800000901D48006840F002001B490860084690
:10379000006800F00200009000BF00BF00BF0020E2
:1037A00000900846006840F0040008600846006881
:1037B00000F00400009000BF00BF4FF48040019073
:1037C000022002900020039004900320059001A99C
:1037D0000C48FEF7BFF980200190022002900020E3
:1037E000039004900320059001A90748FEF7B2F961
:1037F00006B010BD00000140303802400000024019
:103800000004014000040240000802402DE9F04796
:103810002DED0C8B04460E466A4805680027B84615
:10382000B9469FED690AB0EE408A642C0AD242F292
:103830000F7842F21070B5FBF0F0B0FBF4F0401ED0
:1038400087B213E040F6B830844209D24FF06308E3
:103850006420B5FBF0F0B0FBF4F0401E87B205E049
:103860004FF00008B5FBF4F0401E87B240F28260D2
:10387000844202D24FF0FF095CE0B4F54D6F14D8DA
:10388000200137F05FFF41EC1A0B53EC1A2B9FED30
:103890004F0B51EC100B37F089FD41EC190B37F051
:1038A0000DFFC0301FFA80F944E041F6A2108442B7
:1038B00014D2E00037F046FF41EC1A0B53EC1A2B00
:1038C0009FED420B51EC100B37F070FD41EC190BE2
:1038D00037F0F4FEA0301FFA80F92BE043F25430A9
:1038E000844214D2600037F02DFF41EC1A0B53ECE8
:1038F0001A2B9FED360B51EC100B37F057FD41ECB6
:10390000190B37F0DBFE40301FFA80F912E0204639
:1039100037F018FF41EC1A0B53EC1A2B9FED2B0BD1
:1039200051EC100B37F042FD41EC190B37F0C6FE9D
:103930001FFA80F9781C37F0EEFE41EC1B0B304685
:1039400037F000FF41EC1D0B9FED220B53EC102BC9
:1039500037F048FF41EC1C0B53EC1B2B37F042FFB8
:1039600041EC1A0B9FED1D0B53EC102B37F01EFD95
:1039700041EC190B37F034FC08EE100ABCEEC80A13
:1039800010EE100A83B24A463946404600F02EF83F
:103990004A463946404600F0BDF800211148FFF77D
:1039A000E1FA00210F48FEF76FFF04210E48FFF7F0
:1039B000D9FA04210C48FEF767FFBDEC0C8BBDE87B
:1039C000F087000000000020000000000000000060
:1039D00080A23941000000000000F03F000000001C
:1039E0000080764090090020D8090020F0B597B0FB
:1039F00005460C4616461F4600201390149015905D
:103A00001690119012901C210AA8FCF779FF202132
:103A100002A8FCF775FF00BF002001903A4800683B
:103A200040F00100384908600846006800F00100D5
:103A3000019000BF00BF3548354908600846456021
:103A400000218160C460016141618161FEF796FFE0
:103A500008B1FDF795FF4FF48050139013A92C483F
:103A6000FFF714F808B1FDF78BFF2948FFF745FA77
:103A700008B1FDF785FF2648FFF78DF908B1FDF77E
:103A80007FFF702011900020129011A92048FEF7AE
:103A9000A1FE08B1FDF774FF60200A90204604EBF8
:103AA000D07149100B9100200C900D900E900F904A
:103AB000109000220AA91648FFF7A1F908B1FDF7F6
:103AC0005FFF10200A900B970C220AA91048FFF7FD
:103AD0002DF908B1FDF754FF0020029003900490E7
:103AE000059606904FF4005007900020099002A917
:103AF0000748FEF735FE08B1FDF742FF0448FFF71F
:103B00000FFE17B0F0BD0000443802400000014035
:103B10009009002070B59CB005460C461646002062
:103B2000189019901A901B90142113A8FCF7E8FE26
:103B30000020119012901C210AA8FCF7E1FE202120
:103B400002A8FCF7DDFE00BF0020019036480068A7
:103B500040F00200344908600846006800F00200A6
:103B6000019000BF00BF31483149086008464560F8
:103B700000218160C460016141618161FEF7FEFE48
:103B800008B1FDF7FDFE4FF48050189018A92848A1
:103B9000FEF77CFF08B1FDF7F3FE2548FFF7ADF90E
:103BA00008B1FDF7EDFE062013900020149013A934
:103BB0001F48FFF77FFA08B1FDF7E2FE00201190E1
:103BC000129011A91A48FEF705FE08B1FDF7D8FEBC
:103BD00060200A90204604EBD07149100B91002020
:103BE0000C900D900E900F90109004220AA910488E
:103BF000FFF705F908B1FDF7C3FE0020029003901E
:103C00000490059606904FF400500790002009900C
:103C100002A90748FEF7A4FD08B1FDF7B1FE04486C
:103C2000FFF77EFD1CB070BD443802400004014027
:103C3000D809002000B593B00020119012901C21EB
:103C40000AA8FCF75DFE202102A8FCF759FE00BF80
:103C5000002001902A48006840F0010028490860CF
:103C60000846006800F00100019000BF00BF254831
:103C7000254908600020486000212348816041F206
:103C80006701C1600021016141618161FFF735F980
:103C900008B1FDF775FE00201190129011A91A4885
:103CA000FEF798FD08B1FDF76BFE60200A907B20BF
:103CB0000B9000200C900D900E900F901090002211
:103CC0000AA91148FFF79BF808B1FDF759FE00203B
:103CD0000290039004900A200590002006904FF473
:103CE000005007900020099002A90748FEF738FD10
:103CF00008B1FDF745FE044800F054F813B000BDCC
:103D00004438024000000140200A002010B588B06D
:103D100004460020049005900690079002900390BE
:103D200000BF01901D48006840F001001B49086079
:103D30000846006800F00100019000BF00BF0806BF
:103D40001749086000204860002115488160C46060
:103D500001618161FEF712FE08B1FDF711FE4FF41B
:103D60008050049004A90E48FEF790FE08B1FDF7BC
:103D700007FE00200290039002A90948FEF72AFDE1
:103D800008B1FDF7FDFD002211461C20FEF759F891
:103D90001C20FEF746F808B010BD00004038024075
:103DA000680A002010B586B00446142101A8FCF76B
:103DB000A7FD1249206888421DD100BF0020009055
:103DC0000F48006840F010000D4908600846006880
:103DD00000F01000009000BF00BF4FF4C0700190D1
:103DE000022002900020039004900120059001A978
:103DF0000448FDF7AFFE06B010BD00000000014012
:103E0000303802400000024070B50546052D12D240
:103E1000DFE805F00305080B0E00104C0CE044F23F
:103E20009F1409E041F2DF5406E040F6EF2403E07E
:103E30004FF4987400E000BF00BFFFF7FBFE204680
:103E4000FFF764FF00210648FFF78CF800210448C3
:103E5000FEF71AFD0348FEF7C5FD70BD3F90020056
:103E6000200A0020680A002010B5FDF78FFF36F009
:103E700029FE012801D036F0EFFB10BD0348006891
:103E800040F47000014908607047000088ED00E0D0
:103E900010B50248FEF77FFE10BD0000680A002042
:103EA00010B50268294B98420ED0B0F1804F0BD06C
:103EB000274B984208D0274B984205D0264B984272
:103EC00002D0264B984203D122F070024B681A436D
:103ED0001E4B984220D0B0F1804F1DD01C4B984211
:103EE0001AD01C4B984217D01B4B984214D01B4B36
:103EF000984211D01A4B98420ED01A4B98420BD0D0
:103F0000194B984208D0194B984205D0184B98424B
:103F100002D0184B984203D122F44072CB681A4366
:103F200022F080034C6943EA040202608B68C3629A
:103F30000B688362054B984202D0084B984201D12E
:103F40000B6903630123436110BD000000000140C1
:103F50000004004000080040000C00400004014044
:103F6000004001400044014000480140001800406A
:103F7000001C00400020004030B501F01F05012466
:103F800004FA05F3046A9C430462046A01F01F0505
:103F900002FA05F52C43046230BD30B501F01F056F
:103FA000042404FA05F3046A9C430462046A01F0E1
:103FB0001F0502FA05F52C43046230BD30B50C46EE
:103FC000816821F47F4142EA03252543294381602A
:103FD00030BD0A46816821F0700142F007031943A1
:103FE0008160704730B5056A25F001050562026AF7
:103FF0004368846924F0700424F003040D682C43A2
:1040000022F002028D682A43104DA84200D103E03D
:104010000F4DA84206D100BF22F00802CD682A4306
:1040200022F00402094DA84202D0094DA84207D14E
:1040300023F4807323F400734D692B438D692B4364
:10404000436084614D684563026230BD00000140F9
:104050000004014030B5056A25F010050562026ACA
:104060004368846924F4E04424F440740D6844EA0D
:10407000052422F020028D6842EA0512124DA84262
:1040800000D103E0114DA84207D100BF22F0800209
:10409000CD6842EA051222F040020B4DA84202D040
:1040A0000A4DA84209D123F4806323F400634D69CB
:1040B00043EA85038D6943EA8503436084614D6863
:1040C0008563026230BD0000000001400004014031
:1040D00030B5056A25F480750562026A4368C469D3
:1040E00024F0700424F003040D682C4322F40072C1
:1040F0008D6842EA0522124DA84200D103E0114D1D
:10410000A84207D100BF22F40062CD6842EA05222E
:1041100022F480620A4DA84202D00A4DA84209D179
:1041200023F4805323F400534D6943EA05138D694A
:1041300043EA05134360C4614D68C563026230BD44
:10414000000001400004014030B5056A25F48055A7
:104150000562036A4468C26922F4E04222F44072B4
:104160000D6842EA052223F400538D6843EA0533C3
:10417000084DA84202D0084DA84204D124F480443E
:104180004D6944EA85144460C2614D680564036268
:1041900030BD000000000140000401402DE9F04165
:1041A00005460C462868866826F070066068064357
:1041B00026F007062068064328688660606800F0DD
:1041C0000F0100293BD10011082838D2DFE800F0A8
:1041D000333435360B272D04D4E90313A26828683D
:1041E000FFF7ECFE2CE02068052802D10120BDE895
:1041F000F0812868D0F820802868006A20F001004B
:10420000296808622868876927F0F007206947EA6B
:104210000017286887612868C0F8208010E02269AC
:10422000A168286800F00FF80AE02269A1682868F0
:1042300000F01CF804E000BF00BF00BF00E000BFBA
:1042400000BF0020D3E730B50B461446026A056A6A
:1042500025F001050562816921F0F00141EA0411B0
:1042600022F00A021A438161026230BD30B50B466A
:104270001446056A25F0100505628169026A21F479
:10428000704141EA043122F0A00242EA0312816146
:10429000026230BD70B50546AC6B0020E085E0845D
:1042A0002046FEF73FFF70BD0168C96821F4907198
:1042B0000268D1600168496921F001010268516119
:1042C000016B012905D10168C96821F0100102685C
:1042D000D160202180F83E1000210163704710B5A5
:1042E00004462068C06820F040002168C860202093
:1042F00084F83D002046FFF74FF9002010BD70B54F
:10430000044694F83E00222856D1A068B0F5805F9C
:104310000CD1206950B90025A66A20684068C0F316
:1043200008003080A06A801CA06215E0A56A002603
:10433000A068B0F5805F03D0A06828B9206918B9DB
:1043400020684068287004E02068406800F07F0022
:104350002870A06A401CA062E08D401E80B2E085FB
:1043600040BB2068C06820F020002168C860206839
:10437000C06820F480702168C8602068406920F01F
:10438000010021684861202084F83E00206B01284C
:104390000AD12068C06820F010002168C860A18D93
:1043A0002046FEF7BEFE02E02046FFF7B1F80020EF
:1043B000206370BD0020FCE70220FAE72DE9F84FEA
:1043C00004462068006920F44050E16808432168F1
:1043D00008612169A068084361690843E1690843ED
:1043E00000902068C06849F20C6188430099084336
:1043F0002168C8602068406920F44070A1690843C2
:104400002168486176492068884203D07549206850
:10441000884203D1FDF740FE814602E0FDF72CFE05
:104420008146E069B0F5004F6CD102206168A0FBC5
:10443000015003461920A9FB007001462A46384660
:10444000FBF7B5FF6421B0FBF1F04FEA001A022040
:104450006168A0FB01510B461920A9FB00712A4697
:104460003846FBF7A4FF834602206168A0FB015099
:1044700003461920A9FB00712A463846FBF797FF2F
:104480006421B0FBF1F000EBC00101EB0010ABEBDD
:104490008000322101EBC0006421B0FBF1F000F09C
:1044A000F8000AEB400A02206168A0FB01500346B5
:1044B0001920A9FB007001462A463846FBF777FF12
:1044C000834602206168A0FB015003461920A9FB26
:1044D00000712A463846FBF76AFF6421B0FBF1F011
:1044E00000EBC00101EB0010ABEB8000322101EBCF
:1044F000C0006421B0FBF1F000F0070050442168D7
:1045000088606AE004206168A0FB0150034619201E
:10451000A9FB007001462A463846FBF748FF824651
:1045200004206168A0FB015003461920A9FB00701C
:1045300001462A463846FBF73AFF6421B0FBF1F00A
:1045400000EBC00101EB0010AAEB8000322101EB6F
:1045500000106421B0FBF1F000F0F00A0420616863
:10456000A0FB017003461920A9FB00513A462846DA
:10457000FBF71DFF6421B0FBF1F00AEB001A0420E9
:104580006168A0FB01510B461920A9FB00712A4666
:104590003846FBF70CFF834604206168A0FB0150FE
:1045A00003461920A9FB007001462A463846FBF74E
:1045B000FEFE6421B0FBF1F000EBC00101EB001046
:1045C000ABEB8000322101EB00106421B0FBF1F075
:1045D00000F00F00504421688860BDE8F88F0000AB
:1045E000001001400014014010B5034699629A85FD
:1045F000DA8500201864222083F83E0000BF0020E6
:1046000083F83C0000BF1868C06840F480701C68E4
:10461000E0601868406940F001001C68606118683B
:10462000C06840F020001C68E060002010BD01461A
:1046300091F83D00212828D18868B0F5805F0BD122
:10464000086948B90A6A1088C0F308000B68586006
:10465000086A801C086205E00B6A581C086218781A
:104660000B685860C88C401E80B2C88458B908686E
:10467000C06820F080000B68D8600868C06840F00F
:1046800040000B68D860002070470220FCE7000063
:1046900070B500240F4D1048FEF750FD00BF03E039
:1046A000641CAC4200D904E00B48FEF73CFD202816
:1046B000F6D100BF002403E0641CAC4200D906E040
:1046C000012206490448FEF701FF0028F4D100BF8B
:1046D00070BD0000FFFF0100A40800201A000020A8
:1046E00000BFFEE703B401984100009850EAC120E2
:1046F00018BF04204A0D18BF40F0010040F2FF72BD
:10470000B2EB515F08BF40F00200012808BF05204E
:1047100002B0704702480068C0F3022070470000F2
:104720000CED00E010B5002804DB0A07130E054A63
:10473000135406E00A07140E034A00F00F031B1F70
:10474000D45410BD00E400E018ED00E000000000CB
:1047500010B52F499FED2C1B2DED020B84B0059851
:1047600020F000408842DCBF00209DED040B32DDCC
:104770002849884209D1049840B94FF00100FCF75C
:1047800030F900F03DFC06B010BD05DB9DED040BDB
:1047900000F02AFC06B010BD68469DED040B00F049
:1047A0003BF810F0030011D0012818D09DED021B3A
:1047B0009DED000B02281AD000F04AFA51EC100BC4
:1047C00036F002FD06B041EC100B10BD9DED021B52
:1047D0009DED000B012000F06FFB06B010BD9DEDBC
:1047E000021B9DED000B00F033FA06B010BD012056
:1047F00000F062FB51EC100B36F0E6FC06B041EC29
:10480000100B10BD000000000000000000000000C0
:10481000FB21E93F0000F07F2DE9F14F04462DED2B
:10482000020B2DED088B8AB09FEDE70B80ED020B9C
:10483000139EE74826F0004585420ADC9DED120BE9
:10484000002084ED000B0AB0BDEC088B03B0BDE87E
:10485000F08FE0489FEDE0AB9FEDE1BBA84247DD64
:10486000E14F9FEDE39B9FEDE48B9DED120B53EC2D
:104870001A2B51EC100B002E1CDD37F0F3F841EC35
:10488000100BBD4208D053EC1B2B51EC100B37F032
:10489000E9F8C4E900010BE053EC192B51EC100BC3
:1048A00037F0E0F853EC182B37F0DCF8C4E90001DE
:1048B0000120C8E736F0C6FC41EC100BBD4208D021
:1048C00053EC1B2B51EC100B36F0BCFCC4E900017F
:1048D0000BE053EC192B51EC100B36F0B3FC53ECFE
:1048E000182B36F0AFFCC4E900014FF0FF30AAE707
:1048F000C348A84279DB9DED120B51EC100B0EF072
:104900004DFC41EC180B9FEDC00B53EC102B36F017
:1049100069FF9FEDBF1B53EC112B36F093FC36F073
:104920009DFE074636F0F7FE41EC190B53EC1A2BAF
:1049300036F058FF53EC182B37F088F841EC180B81
:1049400053EC1B2B51EC190B36F04CFFDFF8C8A2CF
:1049500041EC100B4FEA15580125FA4453EC102B8B
:1049600051EC180B37F07EF8032DC4E900013DD05F
:10497000C1F30A5005EB4511A8EB00001139814243
:1049800034DA0AEB051BB0EE48AA9BED000BF0EE03
:1049900068AA53EC102B51EC190B36F023FF41ECB5
:1049A0001B0B51EC1A0B53EC1B2B37F05BF841EC53
:1049B000180B51EC1A0B53EC182B37F053F853EC3F
:1049C0001B2B37F04FF89BED020B41EC1A0B53EC0D
:1049D000102B51EC190B36F005FF53EC1A2B37F066
:1049E00041F841EC100B6D1CB8E70EE0002EA8BF9B
:1049F0003846BFF628AF94ED000B51EC100B36F0A3
:104A0000E3FBC4E9000178421DE7C6F3130040F45C
:104A1000801EC6F30A50A0F2F530471100F01F05C2
:104A2000C5F12000DDF848B00890002006900790FE
:104A30000520EC467949002D07EB0002794408BFB8
:104A400051F8221009D051F8223001EB8201AB401D
:104A50004A68089922FA01F11943A1FB0E26A1FB2D
:104A60000B131A449A4234BF0123002303EB0608B8
:104A70000CEB8003D3E901A60E448E4234BF012122
:104A8000002192448A4411B1924502D903E0924533
:104A900001D2012100E00021C3E901A641444CF804
:104AA0002010011EA0F10100C4DC029800F10050AA
:104AB000850F0298DDE903678000DDF8148036F089
:104AC0002AFE41EC1A0B304636F03CFE9FED541B9B
:104AD00053EC112B36F086FE41EC1B0B384636F0BA
:104AE00031FE9FED511B53EC112B36F07BFE41EC58
:104AF000180B404636F026FE9FED4D1B53EC112B54
:104B000036F070FE41EC190B51EC180B53EC192BDD
:104B100036F098FB53EC1B2B36F094FB53EC1A2B1E
:104B200036F090FBCDE90801002008909DED080BC0
:104B300053EC1A2B51EC100B36F094FF53EC1B2B5B
:104B400036F090FF53EC182B36F08CFF53EC192BFA
:104B500036F07CFF9FED381B53EC112B36F042FEF4
:104B60009FED370B41EC180B53EC102B9DED080B10
:104B700051EC100B36F036FE53EC182B36F062FB7E
:104B80009FED310B41EC180B53EC102B9DED080BF6
:104B900051EC100B36F026FE53EC182B36F052FB7E
:104BA00041EC100B139810F0004F06D06D4251EC01
:104BB000100B36F009FB41EC100B284684ED000B7E
:104BC00041E60000000000000000000000000000BE
:104BD000FB21E93F7CD9024000004054FB21F93F12
:104BE0003163621A61B4D03DFB21F93F000000003F
:104BF0000000601A61B4D03D7370032E8A19A33B84
:104C0000FB2139410000000083C8C96D305FE43FDB
:104C1000000000000000E03FB2EF040000EF0400DD
:104C2000000000000000103E000000000000103CEA
:104C3000000000000000103A182D4454FB21F93DFB
:104C40003326A611460B113C00000054FB21F93D10
:104C500010B52DED040B2DED088B82B0B0EE419A0E
:104C6000F0EE619A0B9820F000449FED4BABB4F14D
:104C7000795F11DA9DED0A0B51EC100B36F0EEFC6A
:104C8000002801BFB0EE4A0AF0EE6A0A02B0BDEC9D
:104C9000088B04BF04B010BD9DED0A0B53EC102B24
:104CA00051EC100B36F09EFD41EC180B3C480621F0
:104CB000B0EE480AF0EE680A784400F081F853EC50
:104CC000182B51EC100B36F08DFD9DED0A0B41ECCD
:104CD0001B0B53EC192B51EC100B36F083FD41EC00
:104CE000190B53EC1B2B51EC180B36F07BFD53ECDE
:104CF000192B36F0B7FE9FED2C0B41EC190B53EC42
:104D0000102B51EC180B36F06DFD41EC100B2848C0
:104D1000844210DA53EC192B51EC100B36F0A2FE42
:104D200053EC1A2B36F092FE41EC100B02B0BDECA6
:104D3000088B04B010BD1F48A042BCBF9FED1E1BD6
:104D40008DED001B06DBA4F5001001900020009003
:104D50009DED001B51EC100B53EC112B36F082FE35
:104D60009DED000B41EC180B53EC102B51EC1A0B82
:104D700036F078FE41EC1A0B53EC192B51EC180B62
:104D800036F070FE53EC1A2B36F060FE41EC100B3F
:104D9000CCE7000000000000000000000000F03F31
:104DA00024EC040000000000000000000000E03FD0
:104DB0003333D33F0000E93F000000000000D23F42
:104DC00070B504462DED028B4D1E00EBC500B0EE14
:104DD000408AF0EE608A90ED000B35F0060017D0A7
:104DE00053EC182B51EC100B36F0FCFC41EC100B83
:104DF0006D1E04EBC50090ED001B51EC100B53EC45
:104E0000112B36F01FFA41EC100B35F00600E7D1FC
:104E1000022D36D0042D1CD0062D1CBFBDEC028BFC
:104E200070BD53EC182B51EC100B36F0DBFC94EDFD
:104E30000A1B53EC112B36F005FA53EC182B36F005
:104E4000D1FC94ED081B53EC112B36F0FBF941EC2F
:104E5000100B53EC182B51EC100B36F0C3FC94EDF7
:104E6000061B53EC112B36F0EDF953EC182B36F0F2
:104E7000B9FC94ED040B53EC102B36F0E3F941EC44
:104E8000100B53EC182B51EC100B36F0ABFC94EDDF
:104E9000021B53EC112B36F0D5F953EC182B36F0DE
:104EA000A1FC94ED001B53EC112B36F0CBF9BDECBB
:104EB000028B41EC100B70BD31B504462DED040B97
:104EC0002DED0A8BB0EE41BAF0EE61BA0B989DED74
:104ED0000A0B20F00040B0F1795F0DDA51EC100BB5
:104EE000FFF700FC042808BF00F09AF89DED0A0BBC
:104EF000BDEC0A8B05B030BD53EC102B51EC100B00
:104F000036F070FC41EC180B9DED0A0B53EC182B9E
:104F100051EC100B36F066FC41EC190B2C48B0EE4E
:104F2000480AF0EE680A05217844FFF749FF9FED33
:104F30002ACBB0EE40AAF0EE60AA9CB353EC1C2B37
:104F400051EC190B36F04EFC41EC1C0B53EC1A2BB8
:104F500051EC190B36F046FC9FED210B41EC190B7F
:104F600053EC102B51EC1B0B36F03CFC53EC192B83
:104F700036F078FD53EC182B36F034FC53EC1B2B39
:104F800036F070FD53EC1C2B36F06CFD9DED0A1BCA
:104F900053EC112B36F05AFDBDEC0A8B05B041ECF9
:104FA000100B30BDFFE753EC1A2B51EC180B36F009
:104FB00019FC53EC1C2B36F045F953EC192B36F049
:104FC00011FC9DED0A1B53EC112B36F03BF9E3E786
:104FD000ACEA040000000000495555555555C5BFC1
:104FE000000000000000E03F10B553EC102B51EC26
:104FF000100B36F027F941EC100B10BD000000003B
:105000009FED050B10B553EC102B51EC100B36F047
:10501000CDF941EC100B10BD0000000000000000B5
:105020009FED050B10B553EC102B51EC100B36F027
:10503000D9FB41EC100B10BD000000000000001077
:1050400070B50446002508E02168481C20600878F7
:10505000303805EB850100EB41052168087800F048
:1050600004F80028F0D1284670BD0146302903DB42
:10507000392901DC012070470020FCE730380A287C
:1050800001D20120704700207047000010B5402178
:10509000074801F0E3FA0022042106482BF01EFF26
:1050A0000549086002F002FE00200449087010BDA6
:1050B0005CCE0020797D0008640700206007002096
:1050C00030B50346B1F90040B2F90050AC4202DD00
:1050D000B1F9004001E0B2F900401C80B1F9024092
:1050E000B2F90250AC4202DDB1F9024001E0B2F97E
:1050F00002405C80B1F90440B2F90450AC4202DADB
:10510000B1F9044001E0B2F904409C80B1F90640D5
:10511000B2F90650AC4202DAB1F9064001E0B2F948
:105120000640DC800120B3F90040B3F90450AC42E2
:1051300005DCB3F90240B3F90650AC4200DD0020B3
:1051400030BDF8B504460D4616460027B4F90000F8
:10515000B5F90010884212DBB4F90200B5F902106B
:1051600088420CDBB4F90400B5F90410884206DC6F
:10517000B4F90600B5F90610884200DC01270FB922
:105180000020F8BD0EB90120FBE72088ADF8000033
:105190006088ADF8020032466946284600F0A7F85C
:1051A00008B90020EDE7A088ADF800006088ADF8F0
:1051B000020032466946284600F099F808B90020F6
:1051C000DFE72088ADF80000E088ADF80200324645
:1051D0006946284600F08BF808B90020D1E7A0887E
:1051E000ADF80000E088ADF8020032466946284676
:1051F00000F07DF808B90020C3E70120C1E70246AE
:10520000B2F90000B1F90430984213DCB2F904009D
:10521000B1F9003098420DDBB2F90200B1F9063065
:10522000984207DCB2F90600B1F90230984201DB7E
:10523000012070470020FCE7F8B504460D461646ED
:10524000B4F90400B5F90010884211DBB4F9060086
:10525000B5F9021088420BDBB4F90000B5F904106F
:10526000884205DCB4F90200B5F90610884201DD78
:105270000120F8BD0EB90020FBE72088ADF8000042
:105280006088ADF8020032466946284600F02FF8E3
:1052900008B10020EDE7A088ADF800006088ADF807
:1052A000020032466946284600F021F808B1002085
:1052B000DFE72088ADF80000E088ADF80200324654
:1052C0006946284600F013F808B10020D1E7A0880D
:1052D000ADF80000E088ADF8020032466946284685
:1052E00000F005F808B10020C3E70120C1E72DE96F
:1052F000FC5F05460E4614464FF0000AB6F9000062
:10530000B5F90010884213DBB6F90000B5F90410B6
:1053100088420DDCB6F90200B5F90210884207DBBD
:10532000B6F90200B5F90610884201DC4FF0010A17
:10533000BAF1000F02D10020BDE8FC9F002C01DC77
:105340000120F9E7284617F0CAFB834600EBDB7023
:105350004710284617F03BFB834600EBDB704FEA13
:105360006008474501DA384600E0404681464C4532
:1053700000DD4C462888ADF800002888204400B2A3
:10538000ADF804006888ADF802006888204400B2D7
:10539000ADF80600002231466846FFF7A8FF80B14D
:1053A000BDF80400204400B2ADF80400BDF80600CA
:1053B000204400B2ADF806003146684628F084F873
:1053C000BAE7E888001B00B2ADF80200E888ADF843
:1053D0000600002231466846FFF789FF80B1BDF81C
:1053E0000400204400B2ADF80400BDF80200001B28
:1053F00000B2ADF802003146684628F065F89BE738
:10540000A888001B00B2ADF80000A888ADF8040021
:10541000002231466846FFF76AFF80B1BDF8000000
:10542000001B00B2ADF80000BDF80200001B00B286
:10543000ADF802003146684628F046F87CE76888F7
:10544000ADF802006888204400B2ADF806000022E2
:1054500031466846FFF74BFF80B1BDF80000001BE6
:1054600000B2ADF80000BDF80600204400B2ADF86F
:1054700006003146684628F027F85DE701205BE723
:1054800010B5B1F90030B2F90040A34202DAB1F927
:10549000003001E0B2F900300380B1F90230B2F916
:1054A0000240A34202DAB1F9023001E0B2F902305F
:1054B0004380B1F90430B2F90440A34202DDB1F9EE
:1054C000043001E0B2F904308380B1F90630B2F95A
:1054D0000640A34202DDB1F9063001E0B2F9063020
:1054E000C38010BD2DE9FF4104462BF098FC054612
:1054F0000020039034B14749E068086020462BF053
:1055000005FE03E01AF058F942490860414909686C
:10551000086927F037FF3F480068406920B13D49DE
:105520000968486927F02EFF3A490968C86927F0D9
:1055300029FF38490968086A27F024FF35480068C0
:10554000006940B9002033490968A1F8500100BF43
:1055500000BFBDE8FF8128F0B7FA28F0FDF92D481B
:105560000068B0F8500100284BD02A480068006855
:10557000007CC0F34000E8B1264800681AF09AF9B0
:10558000401E06B2234800681AF02EF9401E07B2EA
:105590003B460022114601A8009617F0E5FA01A843
:1055A0001C4909680968896B48601A48006806F058
:1055B000A9FB00BF4FF4807116480068303022F01C
:1055C000D4F820211348006800F5987022F0CDF837
:1055D000002010490968A1F8500128462BF012FC60
:1055E00003900C4800680068406A50B10949096896
:1055F00008680849096809684B6A07490A680399F5
:10560000984721F0DDFD00F03FF800F007F800BFFB
:105610009FE70000040600200006002010B50024CB
:1056200016E0C4EBC4000C4951F8200030B1C4EBC3
:10563000C401094A52F8210021F074FEC4EBC401F0
:10564000054A02EB81001C2122F08FF8601CC4B2D5
:10565000042CE6DB10BD000038CF00200146094ACB
:1056600010680BE042688A4202D002688A4204D184
:10567000027E22F00102521C027640690028F1D11C
:1056800070470000D80500207047000010B50421C5
:10569000014800F0E3FF10BD50CE002010B51C21E2
:1056A000014800F0DBFF10BD68CE00202DE9FF4F60
:1056B0008BB004469A46199DBAF1000F11D1189883
:1056C000B0F5807F0DD10020208060800C98401EB6
:1056D00000B2A0800D98401E00B2E0800FB0BDE87F
:1056E000F08FB5F900004042189948430121C1EB01
:1056F000202000B22080B5F90200404218994843AA
:105700000121C1EB202000B26080B5F900100C9897
:10571000401A18994843022101EB202000B2A080D2
:10572000B5F902100D98401A18994843022101EB6F
:10573000202000B2E080BAF1000F14D1208829881F
:10574000084400B2208060886988084400B2608004
:10575000A0882988084400B2A080E08869880844AD
:1057600000B2E080BAE70A209AFBF0F00A900A98AB
:10577000401C09900A9800EB8000AAEB400B0A98A5
:1057800000B22BF049FE0890099800B22BF044FEBD
:1057900007900A985A3000B22BF03EFE0690099806
:1057A0005A3000B22BF038FE0590CBF10A01089870
:1057B0004143079800FB0B100A2190FBF1F6CBF157
:1057C0000A0106984143059800FB0B100A2190FB43
:1057D000F1F776117F11B4F90080B4F9029007FB5C
:1057E00008F006FB1900298801EBA02000B2ADF8F3
:1057F000100006FB08F007FB0900698801EBA020F8
:1058000000B2ADF81200B4F90480B4F9029007FBBD
:1058100008F006FB1900298801EBA02000B2ADF8C2
:105820000C0006FB08F007FB0900698801EBA020CB
:1058300000B2ADF80E00B4F90080B4F9069007FB91
:1058400008F006FB1900298801EBA02000B2ADF892
:10585000080006FB08F007FB0900698801EBA0209F
:1058600000B2ADF80A00B4F90480B4F9069007FB61
:1058700008F006FB1900298801EBA02000B2ADF862
:10588000040006FB08F007FB0900698801EBA02073
:1058900000B2ADF80600BDF90800BDF9101088424D
:1058A00002DABDF9080001E0BDF91000BDF90410ED
:1058B000BDF90C20914202DABDF9041001E0BDF9F6
:1058C0000C1088420BDABDF90800BDF910108842AF
:1058D00002DABDF908000DE0BDF910000AE0BDF9DB
:1058E0000400BDF90C10884202DABDF9040001E0A1
:1058F000BDF90C002080BDF90800BDF910108842E8
:1059000002DDBDF9080001E0BDF91000BDF9041089
:10591000BDF90C20914202DDBDF9041001E0BDF992
:105920000C1088420BDDBDF90800BDF9101088424B
:1059300002DDBDF908000DE0BDF910000AE0BDF977
:105940000400BDF90C10884202DDBDF9040001E03D
:10595000BDF90C00A080BDF90A00BDF91210884203
:1059600002DABDF90A0001E0BDF91200BDF9061026
:10597000BDF90E20914202DABDF9061001E0BDF931
:105980000E1088420BDABDF90A00BDF912108842E8
:1059900002DABDF90A000DE0BDF912000AE0BDF916
:1059A0000600BDF90E10884202DABDF9060001E0DA
:1059B000BDF90E006080BDF90A00BDF912108842E1
:1059C00002DDBDF90A0001E0BDF91200BDF90610C3
:1059D000BDF90E20914202DDBDF9061001E0BDF9CE
:1059E0000E1088420BDDBDF90A00BDF91210884285
:1059F00002DDBDF90A000DE0BDF912000AE0BDF9B3
:105A00000600BDF90E10884202DDBDF9060001E076
:105A1000BDF90E00E08000BF60E62DE9F74F86B0CB
:105A2000044620680590B4F908100798A0EB010817
:105A3000B4F90A100898A0EB0109E089B0F5807F5D
:105A400013D1206B00FB08F0E16A01FB1901606AC9
:105A500000EBA10BE06A00FB08F0216B01FB0901E0
:105A6000A06A00EBA10004902FE0A08980B9A06B90
:105A700000FB08F04FEA6018A06B00FB09F04FEA4A
:105A80006019606A00EB080BA06A484404901CE0AF
:105A9000A06B00FB08F04FEA6018A06B00FB09F058
:105AA0004FEA6019206B00FB08F0E16A01FB190165
:105AB000606A00EBA12BE06A00FB08F0216B01FBA0
:105AC0000901A06A00EBA12004904FEA2B2604985C
:105AD0000712B4F90400B04203DC002009B0BDE8AD
